{
  "contractName": "Inheritance",
  "abi": [
    {
      "inputs": [
        {
          "internalType": "address",
          "name": "_heir",
          "type": "address"
        }
      ],
      "stateMutability": "payable",
      "type": "constructor"
    },
    {
      "anonymous": false,
      "inputs": [
        {
          "indexed": true,
          "internalType": "address",
          "name": "previousOwner",
          "type": "address"
        },
        {
          "indexed": true,
          "internalType": "address",
          "name": "newOwner",
          "type": "address"
        }
      ],
      "name": "OwnershipTransferred",
      "type": "event"
    },
    {
      "anonymous": false,
      "inputs": [
        {
          "indexed": true,
          "internalType": "address",
          "name": "by",
          "type": "address"
        },
        {
          "indexed": false,
          "internalType": "uint256",
          "name": "amount",
          "type": "uint256"
        }
      ],
      "name": "Withdrawal",
      "type": "event"
    },
    {
      "inputs": [],
      "name": "heir",
      "outputs": [
        {
          "internalType": "address",
          "name": "",
          "type": "address"
        }
      ],
      "stateMutability": "view",
      "type": "function"
    },
    {
      "inputs": [],
      "name": "lastWithdrawal",
      "outputs": [
        {
          "internalType": "uint256",
          "name": "",
          "type": "uint256"
        }
      ],
      "stateMutability": "view",
      "type": "function"
    },
    {
      "inputs": [],
      "name": "owner",
      "outputs": [
        {
          "internalType": "address",
          "name": "",
          "type": "address"
        }
      ],
      "stateMutability": "view",
      "type": "function"
    },
    {
      "stateMutability": "payable",
      "type": "receive"
    },
    {
      "inputs": [
        {
          "internalType": "uint256",
          "name": "amount",
          "type": "uint256"
        }
      ],
      "name": "withdraw",
      "outputs": [],
      "stateMutability": "nonpayable",
      "type": "function"
    },
    {
      "inputs": [],
      "name": "claimInheritance",
      "outputs": [],
      "stateMutability": "nonpayable",
      "type": "function"
    },
    {
      "inputs": [
        {
          "internalType": "address",
          "name": "newHeir",
          "type": "address"
        }
      ],
      "name": "designateHeir",
      "outputs": [],
      "stateMutability": "nonpayable",
      "type": "function"
    }
  ],
  "bytecode": "0x6080604052604051610b05380380610b058339818101604052810190610025919061010f565b335f806101000a81548173ffffffffffffffffffffffffffffffffffffffff021916908373ffffffffffffffffffffffffffffffffffffffff1602179055508060015f6101000a81548173ffffffffffffffffffffffffffffffffffffffff021916908373ffffffffffffffffffffffffffffffffffffffff160217905550426002819055505061013a565b5f80fd5b5f73ffffffffffffffffffffffffffffffffffffffff82169050919050565b5f6100de826100b5565b9050919050565b6100ee816100d4565b81146100f8575f80fd5b50565b5f81519050610109816100e5565b92915050565b5f60208284031215610124576101236100b1565b5b5f610131848285016100fb565b91505092915050565b6109be806101475f395ff3fe608060405260043610610058575f3560e01c806308dc3629146100635780631dd300ce1461008b5780632e1a7d4d146100b55780638da5cb5b146100dd57806391f2ebb8146101075780639f3c4416146101315761005f565b3661005f57005b5f80fd5b34801561006e575f80fd5b506100896004803603810190610084919061069f565b610147565b005b348015610096575f80fd5b5061009f610217565b6040516100ac91906106e2565b60405180910390f35b3480156100c0575f80fd5b506100db60048036038101906100d69190610725565b61021d565b005b3480156100e8575f80fd5b506100f16103d4565b6040516100fe919061075f565b60405180910390f35b348015610112575f80fd5b5061011b6103f7565b604051610128919061075f565b60405180910390f35b34801561013c575f80fd5b5061014561041c565b005b5f8054906101000a900473ffffffffffffffffffffffffffffffffffffffff1673ffffffffffffffffffffffffffffffffffffffff163373ffffffffffffffffffffffffffffffffffffffff16146101d4576040517f08c379a00000000000000000000000000000000000000000000000000000000081526004016101cb906107d2565b60405180910390fd5b8060015f6101000a81548173ffffffffffffffffffffffffffffffffffffffff021916908373ffffffffffffffffffffffffffffffffffffffff16021790555050565b60025481565b5f8054906101000a900473ffffffffffffffffffffffffffffffffffffffff1673ffffffffffffffffffffffffffffffffffffffff163373ffffffffffffffffffffffffffffffffffffffff16146102aa576040517f08c379a00000000000000000000000000000000000000000000000000000000081526004016102a1906107d2565b60405180910390fd5b5f81036102bd5742600281905550610364565b80471015610300576040517f08c379a00000000000000000000000000000000000000000000000000000000081526004016102f79061083a565b60405180910390fd5b5f8054906101000a900473ffffffffffffffffffffffffffffffffffffffff1673ffffffffffffffffffffffffffffffffffffffff166108fc8290811502906040515f60405180830381858888f19350505050158015610362573d5f803e3d5ffd5b505b5f8054906101000a900473ffffffffffffffffffffffffffffffffffffffff1673ffffffffffffffffffffffffffffffffffffffff167f7fcf532c15f0a6db0bd6d0e038bea71d30d808c7d98cb3bf7268a95bf5081b65826040516103c991906106e2565b60405180910390a250565b5f8054906101000a900473ffffffffffffffffffffffffffffffffffffffff1681565b60015f9054906101000a900473ffffffffffffffffffffffffffffffffffffffff1681565b60015f9054906101000a900473ffffffffffffffffffffffffffffffffffffffff1673ffffffffffffffffffffffffffffffffffffffff163373ffffffffffffffffffffffffffffffffffffffff16146104ab576040517f08c379a00000000000000000000000000000000000000000000000000000000081526004016104a2906108a2565b60405180910390fd5b62278d006002546104bc91906108ed565b4210156104fe576040517f08c379a00000000000000000000000000000000000000000000000000000000081526004016104f59061096a565b60405180910390fd5b60015f9054906101000a900473ffffffffffffffffffffffffffffffffffffffff1673ffffffffffffffffffffffffffffffffffffffff165f8054906101000a900473ffffffffffffffffffffffffffffffffffffffff1673ffffffffffffffffffffffffffffffffffffffff167f8be0079c531659141344cd1fd0a4f28419497f9722a3daafe3b4186f6b6457e060405160405180910390a360015f9054906101000a900473ffffffffffffffffffffffffffffffffffffffff165f806101000a81548173ffffffffffffffffffffffffffffffffffffffff021916908373ffffffffffffffffffffffffffffffffffffffff160217905550426002819055505f60015f6101000a81548173ffffffffffffffffffffffffffffffffffffffff021916908373ffffffffffffffffffffffffffffffffffffffff160217905550565b5f80fd5b5f73ffffffffffffffffffffffffffffffffffffffff82169050919050565b5f61066e82610645565b9050919050565b61067e81610664565b8114610688575f80fd5b50565b5f8135905061069981610675565b92915050565b5f602082840312156106b4576106b3610641565b5b5f6106c18482850161068b565b91505092915050565b5f819050919050565b6106dc816106ca565b82525050565b5f6020820190506106f55f8301846106d3565b92915050565b610704816106ca565b811461070e575f80fd5b50565b5f8135905061071f816106fb565b92915050565b5f6020828403121561073a57610739610641565b5b5f61074784828501610711565b91505092915050565b61075981610664565b82525050565b5f6020820190506107725f830184610750565b92915050565b5f82825260208201905092915050565b7f4e6f742074686520636f6e7472616374206f776e6572000000000000000000005f82015250565b5f6107bc601683610778565b91506107c782610788565b602082019050919050565b5f6020820190508181035f8301526107e9816107b0565b9050919050565b7f496e73756666696369656e742062616c616e63650000000000000000000000005f82015250565b5f610824601483610778565b915061082f826107f0565b602082019050919050565b5f6020820190508181035f83015261085181610818565b9050919050565b7f4e6f74207468652064657369676e6174656420686569720000000000000000005f82015250565b5f61088c601783610778565b915061089782610858565b602082019050919050565b5f6020820190508181035f8301526108b981610880565b9050919050565b7f4e487b71000000000000000000000000000000000000000000000000000000005f52601160045260245ffd5b5f6108f7826106ca565b9150610902836106ca565b925082820190508082111561091a576109196108c0565b5b92915050565b7f4f776e6572206163746976697479207374696c6c2076616c69640000000000005f82015250565b5f610954601a83610778565b915061095f82610920565b602082019050919050565b5f6020820190508181035f83015261098181610948565b905091905056fea264697066735822122026a9703e7cd0740e15034f0c994d62b604dd6b333b8bafc2b1c7a6d23376189a64736f6c63430008150033",
  "immutableReferences": {},
  "source": "// SPDX-License-Identifier: MIT\npragma solidity ^0.8.0;\n\ncontract Inheritance {\n    address public owner;\n    address public heir;\n    uint256 public lastWithdrawal;\n\n    uint256 constant TIME_LIMIT = 30 days;\n\n    event Withdrawal(address indexed by, uint256 amount);\n    event OwnershipTransferred(address indexed previousOwner, address indexed newOwner);\n\n    modifier onlyOwner() {\n        require(msg.sender == owner, \"Not the contract owner\");\n        _;\n    }\n\n    modifier onlyHeir() {\n        require(msg.sender == heir, \"Not the designated heir\");\n        _;\n    }\n\n    constructor(address _heir) payable {\n        owner = msg.sender; // Set the owner to the deployer\n        heir = _heir; // Set the heir to the provided address\n        lastWithdrawal = block.timestamp; // Initialize last withdrawal time\n    }\n\n    function withdraw(uint256 amount) external onlyOwner {\n        // If the owner requests to withdraw 0 ETH\n        if (amount == 0) {\n            // Reset the last withdrawal time\n            lastWithdrawal = block.timestamp;\n        } else {\n            require(address(this).balance >= amount, \"Insufficient balance\"); // Check for sufficient balance\n            \n            // Transfer the specified amount to the owner\n            payable(owner).transfer(amount);\n        }\n\n        emit Withdrawal(owner, amount);\n    }\n\n    // Allows the heir to take control if the owner hasn't withdrawn for over 30 days\n    function claimInheritance() external onlyHeir {\n        require(block.timestamp >= lastWithdrawal + TIME_LIMIT, \"Owner activity still valid\"); // Check if 30 days have passed\n\n        emit OwnershipTransferred(owner, heir);\n\n        owner = heir; // Transfer ownership to the heir\n        lastWithdrawal = block.timestamp; // Reset last withdrawal time\n        heir = address(0); // Optionally clear the heir designation\n    }\n\n    // Allows the current owner to designate a new heir\n    function designateHeir(address newHeir) external onlyOwner {\n        heir = newHeir; // Set the new heir\n    }\n\n    // Fallback function to receive ETH\n    receive() external payable {}\n}\n",
  "sourcePath": "/Users/paul/Sites/testk/smartContract/contracts/inheritance.sol",
  "compiler": {
    "name": "solc",
    "version": "0.8.21+commit.d9974bed.Emscripten.clang"
  },
  "schemaVersion": "3.4.16",
  "updatedAt": "2024-11-06T14:06:42.308Z",
  "devdoc": {
    "kind": "dev",
    "methods": {},
    "version": 1
  },
  "userdoc": {
    "kind": "user",
    "methods": {},
    "version": 1
  }
}